{
    "contractAddress": "0x44207b45A4f792a47A3E77aE21519D50571E65bc",
    "_format": "hh-sol-artifact-1",
    "contractName": "KYCToken",
    "sourceName": "contracts/KYCToken.sol",
    "abi": [
        {
            "inputs": [
                {
                    "internalType": "string",
                    "name": "name",
                    "type": "string"
                },
                {
                    "internalType": "string",
                    "name": "symbol",
                    "type": "string"
                }
            ],
            "stateMutability": "nonpayable",
            "type": "constructor"
        },
        {
            "anonymous": false,
            "inputs": [
                {
                    "indexed": true,
                    "internalType": "address",
                    "name": "owner",
                    "type": "address"
                },
                {
                    "indexed": true,
                    "internalType": "address",
                    "name": "spender",
                    "type": "address"
                },
                {
                    "indexed": false,
                    "internalType": "uint256",
                    "name": "value",
                    "type": "uint256"
                }
            ],
            "name": "Approval",
            "type": "event"
        },
        {
            "anonymous": false,
            "inputs": [
                {
                    "indexed": true,
                    "internalType": "address",
                    "name": "from",
                    "type": "address"
                },
                {
                    "indexed": true,
                    "internalType": "address",
                    "name": "to",
                    "type": "address"
                },
                {
                    "indexed": false,
                    "internalType": "uint256",
                    "name": "value",
                    "type": "uint256"
                }
            ],
            "name": "Transfer",
            "type": "event"
        },
        {
            "inputs": [
                {
                    "internalType": "address",
                    "name": "owner",
                    "type": "address"
                },
                {
                    "internalType": "address",
                    "name": "spender",
                    "type": "address"
                }
            ],
            "name": "allowance",
            "outputs": [
                {
                    "internalType": "uint256",
                    "name": "",
                    "type": "uint256"
                }
            ],
            "stateMutability": "view",
            "type": "function"
        },
        {
            "inputs": [],
            "name": "amountFaucet",
            "outputs": [
                {
                    "internalType": "uint256",
                    "name": "",
                    "type": "uint256"
                }
            ],
            "stateMutability": "view",
            "type": "function"
        },
        {
            "inputs": [
                {
                    "internalType": "address",
                    "name": "spender",
                    "type": "address"
                },
                {
                    "internalType": "uint256",
                    "name": "amount",
                    "type": "uint256"
                }
            ],
            "name": "approve",
            "outputs": [
                {
                    "internalType": "bool",
                    "name": "",
                    "type": "bool"
                }
            ],
            "stateMutability": "nonpayable",
            "type": "function"
        },
        {
            "inputs": [
                {
                    "internalType": "address",
                    "name": "account",
                    "type": "address"
                }
            ],
            "name": "balanceOf",
            "outputs": [
                {
                    "internalType": "uint256",
                    "name": "",
                    "type": "uint256"
                }
            ],
            "stateMutability": "view",
            "type": "function"
        },
        {
            "inputs": [],
            "name": "decimals",
            "outputs": [
                {
                    "internalType": "uint8",
                    "name": "",
                    "type": "uint8"
                }
            ],
            "stateMutability": "view",
            "type": "function"
        },
        {
            "inputs": [
                {
                    "internalType": "address",
                    "name": "spender",
                    "type": "address"
                },
                {
                    "internalType": "uint256",
                    "name": "subtractedValue",
                    "type": "uint256"
                }
            ],
            "name": "decreaseAllowance",
            "outputs": [
                {
                    "internalType": "bool",
                    "name": "",
                    "type": "bool"
                }
            ],
            "stateMutability": "nonpayable",
            "type": "function"
        },
        {
            "inputs": [],
            "name": "faucetToken",
            "outputs": [],
            "stateMutability": "nonpayable",
            "type": "function"
        },
        {
            "inputs": [
                {
                    "internalType": "address",
                    "name": "spender",
                    "type": "address"
                },
                {
                    "internalType": "uint256",
                    "name": "addedValue",
                    "type": "uint256"
                }
            ],
            "name": "increaseAllowance",
            "outputs": [
                {
                    "internalType": "bool",
                    "name": "",
                    "type": "bool"
                }
            ],
            "stateMutability": "nonpayable",
            "type": "function"
        },
        {
            "inputs": [
                {
                    "internalType": "address",
                    "name": "",
                    "type": "address"
                }
            ],
            "name": "lastFaucet",
            "outputs": [
                {
                    "internalType": "uint256",
                    "name": "",
                    "type": "uint256"
                }
            ],
            "stateMutability": "view",
            "type": "function"
        },
        {
            "inputs": [],
            "name": "name",
            "outputs": [
                {
                    "internalType": "string",
                    "name": "",
                    "type": "string"
                }
            ],
            "stateMutability": "view",
            "type": "function"
        },
        {
            "inputs": [],
            "name": "symbol",
            "outputs": [
                {
                    "internalType": "string",
                    "name": "",
                    "type": "string"
                }
            ],
            "stateMutability": "view",
            "type": "function"
        },
        {
            "inputs": [],
            "name": "totalSupply",
            "outputs": [
                {
                    "internalType": "uint256",
                    "name": "",
                    "type": "uint256"
                }
            ],
            "stateMutability": "view",
            "type": "function"
        },
        {
            "inputs": [
                {
                    "internalType": "address",
                    "name": "to",
                    "type": "address"
                },
                {
                    "internalType": "uint256",
                    "name": "amount",
                    "type": "uint256"
                }
            ],
            "name": "transfer",
            "outputs": [
                {
                    "internalType": "bool",
                    "name": "",
                    "type": "bool"
                }
            ],
            "stateMutability": "nonpayable",
            "type": "function"
        },
        {
            "inputs": [
                {
                    "internalType": "address",
                    "name": "from",
                    "type": "address"
                },
                {
                    "internalType": "address",
                    "name": "to",
                    "type": "address"
                },
                {
                    "internalType": "uint256",
                    "name": "amount",
                    "type": "uint256"
                }
            ],
            "name": "transferFrom",
            "outputs": [
                {
                    "internalType": "bool",
                    "name": "",
                    "type": "bool"
                }
            ],
            "stateMutability": "nonpayable",
            "type": "function"
        }
    ],
    "bytecode": "0x60806040526103e86005553480156200001757600080fd5b506040516200212a3803806200212a83398181016040528101906200003d9190620003c0565b8181816003908162000050919062000690565b50806004908162000062919062000690565b505050620000a5336200007a620000ad60201b60201c565b60ff16600a6200008b9190620008fa565b60646200009991906200094b565b620000b660201b60201c565b505062000a82565b60006012905090565b600073ffffffffffffffffffffffffffffffffffffffff168273ffffffffffffffffffffffffffffffffffffffff160362000128576040517f08c379a00000000000000000000000000000000000000000000000000000000081526004016200011f90620009f7565b60405180910390fd5b6200013c600083836200022360201b60201c565b806002600082825462000150919062000a19565b92505081905550806000808473ffffffffffffffffffffffffffffffffffffffff1673ffffffffffffffffffffffffffffffffffffffff168152602001908152602001600020600082825401925050819055508173ffffffffffffffffffffffffffffffffffffffff16600073ffffffffffffffffffffffffffffffffffffffff167fddf252ad1be2c89b69c2b068fc378daa952ba7f163c4a11628f55a4df523b3ef8360405162000203919062000a65565b60405180910390a36200021f600083836200022860201b60201c565b5050565b505050565b505050565b6000604051905090565b600080fd5b600080fd5b600080fd5b600080fd5b6000601f19601f8301169050919050565b7f4e487b7100000000000000000000000000000000000000000000000000000000600052604160045260246000fd5b62000296826200024b565b810181811067ffffffffffffffff82111715620002b857620002b76200025c565b5b80604052505050565b6000620002cd6200022d565b9050620002db82826200028b565b919050565b600067ffffffffffffffff821115620002fe57620002fd6200025c565b5b62000309826200024b565b9050602081019050919050565b60005b838110156200033657808201518184015260208101905062000319565b60008484015250505050565b6000620003596200035384620002e0565b620002c1565b90508281526020810184848401111562000378576200037762000246565b5b6200038584828562000316565b509392505050565b600082601f830112620003a557620003a462000241565b5b8151620003b784826020860162000342565b91505092915050565b60008060408385031215620003da57620003d962000237565b5b600083015167ffffffffffffffff811115620003fb57620003fa6200023c565b5b62000409858286016200038d565b925050602083015167ffffffffffffffff8111156200042d576200042c6200023c565b5b6200043b858286016200038d565b9150509250929050565b600081519050919050565b7f4e487b7100000000000000000000000000000000000000000000000000000000600052602260045260246000fd5b600060028204905060018216806200049857607f821691505b602082108103620004ae57620004ad62000450565b5b50919050565b60008190508160005260206000209050919050565b60006020601f8301049050919050565b600082821b905092915050565b600060088302620005187fffffffffffffffffffffffffffffffffffffffffffffffffffffffffffffffff82620004d9565b620005248683620004d9565b95508019841693508086168417925050509392505050565b6000819050919050565b6000819050919050565b6000620005716200056b62000565846200053c565b62000546565b6200053c565b9050919050565b6000819050919050565b6200058d8362000550565b620005a56200059c8262000578565b848454620004e6565b825550505050565b600090565b620005bc620005ad565b620005c981848462000582565b505050565b5b81811015620005f157620005e5600082620005b2565b600181019050620005cf565b5050565b601f82111562000640576200060a81620004b4565b6200061584620004c9565b8101602085101562000625578190505b6200063d6200063485620004c9565b830182620005ce565b50505b505050565b600082821c905092915050565b6000620006656000198460080262000645565b1980831691505092915050565b600062000680838362000652565b9150826002028217905092915050565b6200069b8262000445565b67ffffffffffffffff811115620006b757620006b66200025c565b5b620006c382546200047f565b620006d0828285620005f5565b600060209050601f831160018114620007085760008415620006f3578287015190505b620006ff858262000672565b8655506200076f565b601f1984166200071886620004b4565b60005b8281101562000742578489015182556001820191506020850194506020810190506200071b565b868310156200076257848901516200075e601f89168262000652565b8355505b6001600288020188555050505b505050505050565b7f4e487b7100000000000000000000000000000000000000000000000000000000600052601160045260246000fd5b60008160011c9050919050565b6000808291508390505b60018511156200080557808604811115620007dd57620007dc62000777565b5b6001851615620007ed5780820291505b8081029050620007fd85620007a6565b9450620007bd565b94509492505050565b600082620008205760019050620008f3565b81620008305760009050620008f3565b816001811462000849576002811462000854576200088a565b6001915050620008f3565b60ff84111562000869576200086862000777565b5b8360020a91508482111562000883576200088262000777565b5b50620008f3565b5060208310610133831016604e8410600b8410161715620008c45782820a905083811115620008be57620008bd62000777565b5b620008f3565b620008d38484846001620007b3565b92509050818404811115620008ed57620008ec62000777565b5b81810290505b9392505050565b600062000907826200053c565b915062000914836200053c565b9250620009437fffffffffffffffffffffffffffffffffffffffffffffffffffffffffffffffff84846200080e565b905092915050565b600062000958826200053c565b915062000965836200053c565b925082820262000975816200053c565b915082820484148315176200098f576200098e62000777565b5b5092915050565b600082825260208201905092915050565b7f45524332303a206d696e7420746f20746865207a65726f206164647265737300600082015250565b6000620009df601f8362000996565b9150620009ec82620009a7565b602082019050919050565b6000602082019050818103600083015262000a1281620009d0565b9050919050565b600062000a26826200053c565b915062000a33836200053c565b925082820190508082111562000a4e5762000a4d62000777565b5b92915050565b62000a5f816200053c565b82525050565b600060208201905062000a7c600083018462000a54565b92915050565b6116988062000a926000396000f3fe608060405234801561001057600080fd5b50600436106100ea5760003560e01c806370a082311161008c578063a9059cbb11610066578063a9059cbb14610287578063b7b524a1146102b7578063dd62ed3e146102c1578063e369b459146102f1576100ea565b806370a082311461020957806395d89b4114610239578063a457c2d714610257576100ea565b806323b872dd116100c857806323b872dd1461015b578063313ce5671461018b57806339509351146101a95780634799e212146101d9576100ea565b806306fdde03146100ef578063095ea7b31461010d57806318160ddd1461013d575b600080fd5b6100f761030f565b6040516101049190610e43565b60405180910390f35b61012760048036038101906101229190610efe565b6103a1565b6040516101349190610f59565b60405180910390f35b6101456103c4565b6040516101529190610f83565b60405180910390f35b61017560048036038101906101709190610f9e565b6103ce565b6040516101829190610f59565b60405180910390f35b6101936103fd565b6040516101a0919061100d565b60405180910390f35b6101c360048036038101906101be9190610efe565b610406565b6040516101d09190610f59565b60405180910390f35b6101f360048036038101906101ee9190611028565b61043d565b6040516102009190610f83565b60405180910390f35b610223600480360381019061021e9190611028565b610455565b6040516102309190610f83565b60405180910390f35b61024161049d565b60405161024e9190610e43565b60405180910390f35b610271600480360381019061026c9190610efe565b61052f565b60405161027e9190610f59565b60405180910390f35b6102a1600480360381019061029c9190610efe565b6105a6565b6040516102ae9190610f59565b60405180910390f35b6102bf6105c9565b005b6102db60048036038101906102d69190611055565b6106f3565b6040516102e89190610f83565b60405180910390f35b6102f961077a565b6040516103069190610f83565b60405180910390f35b60606003805461031e906110c4565b80601f016020809104026020016040519081016040528092919081815260200182805461034a906110c4565b80156103975780601f1061036c57610100808354040283529160200191610397565b820191906000526020600020905b81548152906001019060200180831161037a57829003601f168201915b5050505050905090565b6000806103ac610780565b90506103b9818585610788565b600191505092915050565b6000600254905090565b6000806103d9610780565b90506103e6858285610951565b6103f18585856109dd565b60019150509392505050565b60006012905090565b600080610411610780565b905061043281858561042385896106f3565b61042d9190611124565b610788565b600191505092915050565b60066020528060005260406000206000915090505481565b60008060008373ffffffffffffffffffffffffffffffffffffffff1673ffffffffffffffffffffffffffffffffffffffff168152602001908152602001600020549050919050565b6060600480546104ac906110c4565b80601f01602080910402602001604051908101604052809291908181526020018280546104d8906110c4565b80156105255780601f106104fa57610100808354040283529160200191610525565b820191906000526020600020905b81548152906001019060200180831161050857829003601f168201915b5050505050905090565b60008061053a610780565b9050600061054882866106f3565b90508381101561058d576040517f08c379a0000000000000000000000000000000000000000000000000000000008152600401610584906111ca565b60405180910390fd5b61059a8286868403610788565b60019250505092915050565b6000806105b1610780565b90506105be8185856109dd565b600191505092915050565b6000600660003373ffffffffffffffffffffffffffffffffffffffff1673ffffffffffffffffffffffffffffffffffffffff1681526020019081526020016000205414806106625750610258600660003373ffffffffffffffffffffffffffffffffffffffff1673ffffffffffffffffffffffffffffffffffffffff168152602001908152602001600020544261066091906111ea565b115b6106a1576040517f08c379a000000000000000000000000000000000000000000000000000000000815260040161069890611290565b60405180910390fd5b6106ad33600554610c53565b42600660003373ffffffffffffffffffffffffffffffffffffffff1673ffffffffffffffffffffffffffffffffffffffff16815260200190815260200160002081905550565b6000600160008473ffffffffffffffffffffffffffffffffffffffff1673ffffffffffffffffffffffffffffffffffffffff16815260200190815260200160002060008373ffffffffffffffffffffffffffffffffffffffff1673ffffffffffffffffffffffffffffffffffffffff16815260200190815260200160002054905092915050565b60055481565b600033905090565b600073ffffffffffffffffffffffffffffffffffffffff168373ffffffffffffffffffffffffffffffffffffffff16036107f7576040517f08c379a00000000000000000000000000000000000000000000000000000000081526004016107ee90611322565b60405180910390fd5b600073ffffffffffffffffffffffffffffffffffffffff168273ffffffffffffffffffffffffffffffffffffffff1603610866576040517f08c379a000000000000000000000000000000000000000000000000000000000815260040161085d906113b4565b60405180910390fd5b80600160008573ffffffffffffffffffffffffffffffffffffffff1673ffffffffffffffffffffffffffffffffffffffff16815260200190815260200160002060008473ffffffffffffffffffffffffffffffffffffffff1673ffffffffffffffffffffffffffffffffffffffff168152602001908152602001600020819055508173ffffffffffffffffffffffffffffffffffffffff168373ffffffffffffffffffffffffffffffffffffffff167f8c5be1e5ebec7d5bd14f71427d1e84f3dd0314c0f7b2291e5b200ac8c7c3b925836040516109449190610f83565b60405180910390a3505050565b600061095d84846106f3565b90507fffffffffffffffffffffffffffffffffffffffffffffffffffffffffffffffff81146109d757818110156109c9576040517f08c379a00000000000000000000000000000000000000000000000000000000081526004016109c090611420565b60405180910390fd5b6109d68484848403610788565b5b50505050565b600073ffffffffffffffffffffffffffffffffffffffff168373ffffffffffffffffffffffffffffffffffffffff1603610a4c576040517f08c379a0000000000000000000000000000000000000000000000000000000008152600401610a43906114b2565b60405180910390fd5b600073ffffffffffffffffffffffffffffffffffffffff168273ffffffffffffffffffffffffffffffffffffffff1603610abb576040517f08c379a0000000000000000000000000000000000000000000000000000000008152600401610ab290611544565b60405180910390fd5b610ac6838383610da9565b60008060008573ffffffffffffffffffffffffffffffffffffffff1673ffffffffffffffffffffffffffffffffffffffff16815260200190815260200160002054905081811015610b4c576040517f08c379a0000000000000000000000000000000000000000000000000000000008152600401610b43906115d6565b60405180910390fd5b8181036000808673ffffffffffffffffffffffffffffffffffffffff1673ffffffffffffffffffffffffffffffffffffffff16815260200190815260200160002081905550816000808573ffffffffffffffffffffffffffffffffffffffff1673ffffffffffffffffffffffffffffffffffffffff168152602001908152602001600020600082825401925050819055508273ffffffffffffffffffffffffffffffffffffffff168473ffffffffffffffffffffffffffffffffffffffff167fddf252ad1be2c89b69c2b068fc378daa952ba7f163c4a11628f55a4df523b3ef84604051610c3a9190610f83565b60405180910390a3610c4d848484610dae565b50505050565b600073ffffffffffffffffffffffffffffffffffffffff168273ffffffffffffffffffffffffffffffffffffffff1603610cc2576040517f08c379a0000000000000000000000000000000000000000000000000000000008152600401610cb990611642565b60405180910390fd5b610cce60008383610da9565b8060026000828254610ce09190611124565b92505081905550806000808473ffffffffffffffffffffffffffffffffffffffff1673ffffffffffffffffffffffffffffffffffffffff168152602001908152602001600020600082825401925050819055508173ffffffffffffffffffffffffffffffffffffffff16600073ffffffffffffffffffffffffffffffffffffffff167fddf252ad1be2c89b69c2b068fc378daa952ba7f163c4a11628f55a4df523b3ef83604051610d919190610f83565b60405180910390a3610da560008383610dae565b5050565b505050565b505050565b600081519050919050565b600082825260208201905092915050565b60005b83811015610ded578082015181840152602081019050610dd2565b60008484015250505050565b6000601f19601f8301169050919050565b6000610e1582610db3565b610e1f8185610dbe565b9350610e2f818560208601610dcf565b610e3881610df9565b840191505092915050565b60006020820190508181036000830152610e5d8184610e0a565b905092915050565b600080fd5b600073ffffffffffffffffffffffffffffffffffffffff82169050919050565b6000610e9582610e6a565b9050919050565b610ea581610e8a565b8114610eb057600080fd5b50565b600081359050610ec281610e9c565b92915050565b6000819050919050565b610edb81610ec8565b8114610ee657600080fd5b50565b600081359050610ef881610ed2565b92915050565b60008060408385031215610f1557610f14610e65565b5b6000610f2385828601610eb3565b9250506020610f3485828601610ee9565b9150509250929050565b60008115159050919050565b610f5381610f3e565b82525050565b6000602082019050610f6e6000830184610f4a565b92915050565b610f7d81610ec8565b82525050565b6000602082019050610f986000830184610f74565b92915050565b600080600060608486031215610fb757610fb6610e65565b5b6000610fc586828701610eb3565b9350506020610fd686828701610eb3565b9250506040610fe786828701610ee9565b9150509250925092565b600060ff82169050919050565b61100781610ff1565b82525050565b60006020820190506110226000830184610ffe565b92915050565b60006020828403121561103e5761103d610e65565b5b600061104c84828501610eb3565b91505092915050565b6000806040838503121561106c5761106b610e65565b5b600061107a85828601610eb3565b925050602061108b85828601610eb3565b9150509250929050565b7f4e487b7100000000000000000000000000000000000000000000000000000000600052602260045260246000fd5b600060028204905060018216806110dc57607f821691505b6020821081036110ef576110ee611095565b5b50919050565b7f4e487b7100000000000000000000000000000000000000000000000000000000600052601160045260246000fd5b600061112f82610ec8565b915061113a83610ec8565b9250828201905080821115611152576111516110f5565b5b92915050565b7f45524332303a2064656372656173656420616c6c6f77616e63652062656c6f7760008201527f207a65726f000000000000000000000000000000000000000000000000000000602082015250565b60006111b4602583610dbe565b91506111bf82611158565b604082019050919050565b600060208201905081810360008301526111e3816111a7565b9050919050565b60006111f582610ec8565b915061120083610ec8565b9250828203905081811115611218576112176110f5565b5b92915050565b7f4974206861736e2774206265656e206c6f6e672073696e636520796f7520726560008201527f636569766564204661756365742e000000000000000000000000000000000000602082015250565b600061127a602e83610dbe565b91506112858261121e565b604082019050919050565b600060208201905081810360008301526112a98161126d565b9050919050565b7f45524332303a20617070726f76652066726f6d20746865207a65726f2061646460008201527f7265737300000000000000000000000000000000000000000000000000000000602082015250565b600061130c602483610dbe565b9150611317826112b0565b604082019050919050565b6000602082019050818103600083015261133b816112ff565b9050919050565b7f45524332303a20617070726f766520746f20746865207a65726f20616464726560008201527f7373000000000000000000000000000000000000000000000000000000000000602082015250565b600061139e602283610dbe565b91506113a982611342565b604082019050919050565b600060208201905081810360008301526113cd81611391565b9050919050565b7f45524332303a20696e73756666696369656e7420616c6c6f77616e6365000000600082015250565b600061140a601d83610dbe565b9150611415826113d4565b602082019050919050565b60006020820190508181036000830152611439816113fd565b9050919050565b7f45524332303a207472616e736665722066726f6d20746865207a65726f20616460008201527f6472657373000000000000000000000000000000000000000000000000000000602082015250565b600061149c602583610dbe565b91506114a782611440565b604082019050919050565b600060208201905081810360008301526114cb8161148f565b9050919050565b7f45524332303a207472616e7366657220746f20746865207a65726f206164647260008201527f6573730000000000000000000000000000000000000000000000000000000000602082015250565b600061152e602383610dbe565b9150611539826114d2565b604082019050919050565b6000602082019050818103600083015261155d81611521565b9050919050565b7f45524332303a207472616e7366657220616d6f756e742065786365656473206260008201527f616c616e63650000000000000000000000000000000000000000000000000000602082015250565b60006115c0602683610dbe565b91506115cb82611564565b604082019050919050565b600060208201905081810360008301526115ef816115b3565b9050919050565b7f45524332303a206d696e7420746f20746865207a65726f206164647265737300600082015250565b600061162c601f83610dbe565b9150611637826115f6565b602082019050919050565b6000602082019050818103600083015261165b8161161f565b905091905056fea26469706673582212206699fe30e71cd5208a4e6851b921be4881dfc2c6a81f94be70993c873ec2ba3164736f6c63430008110033",
    "linkReferences": {},
    "deployedLinkReferences": {}
}