{
    "contractAddress": "0xFF1910D78124dE6921f529F267a093b0432417cf",
    "_format": "hh-sol-artifact-1",
    "contractName": "StakingRewards",
    "sourceName": "contracts/StakingRewards.sol",
    "abi": [
        {
            "inputs": [
                {
                    "internalType": "address",
                    "name": "_stakingToken",
                    "type": "address"
                },
                {
                    "internalType": "address",
                    "name": "_rewardToken",
                    "type": "address"
                }
            ],
            "stateMutability": "nonpayable",
            "type": "constructor"
        },
        {
            "inputs": [
                {
                    "internalType": "address",
                    "name": "",
                    "type": "address"
                }
            ],
            "name": "balanceOf",
            "outputs": [
                {
                    "internalType": "uint256",
                    "name": "",
                    "type": "uint256"
                }
            ],
            "stateMutability": "view",
            "type": "function"
        },
        {
            "inputs": [],
            "name": "duration",
            "outputs": [
                {
                    "internalType": "uint256",
                    "name": "",
                    "type": "uint256"
                }
            ],
            "stateMutability": "view",
            "type": "function"
        },
        {
            "inputs": [
                {
                    "internalType": "address",
                    "name": "_account",
                    "type": "address"
                }
            ],
            "name": "earned",
            "outputs": [
                {
                    "internalType": "uint256",
                    "name": "",
                    "type": "uint256"
                }
            ],
            "stateMutability": "view",
            "type": "function"
        },
        {
            "inputs": [],
            "name": "finishAt",
            "outputs": [
                {
                    "internalType": "uint256",
                    "name": "",
                    "type": "uint256"
                }
            ],
            "stateMutability": "view",
            "type": "function"
        },
        {
            "inputs": [],
            "name": "getReward",
            "outputs": [],
            "stateMutability": "nonpayable",
            "type": "function"
        },
        {
            "inputs": [],
            "name": "lastTimeRewardApplicable",
            "outputs": [
                {
                    "internalType": "uint256",
                    "name": "",
                    "type": "uint256"
                }
            ],
            "stateMutability": "view",
            "type": "function"
        },
        {
            "inputs": [
                {
                    "internalType": "uint256",
                    "name": "_amount",
                    "type": "uint256"
                }
            ],
            "name": "notifyRewardAmount",
            "outputs": [],
            "stateMutability": "nonpayable",
            "type": "function"
        },
        {
            "inputs": [],
            "name": "owner",
            "outputs": [
                {
                    "internalType": "address",
                    "name": "",
                    "type": "address"
                }
            ],
            "stateMutability": "view",
            "type": "function"
        },
        {
            "inputs": [],
            "name": "rewardPerToken",
            "outputs": [
                {
                    "internalType": "uint256",
                    "name": "",
                    "type": "uint256"
                }
            ],
            "stateMutability": "view",
            "type": "function"
        },
        {
            "inputs": [],
            "name": "rewardPerTokenStored",
            "outputs": [
                {
                    "internalType": "uint256",
                    "name": "",
                    "type": "uint256"
                }
            ],
            "stateMutability": "view",
            "type": "function"
        },
        {
            "inputs": [],
            "name": "rewardRate",
            "outputs": [
                {
                    "internalType": "uint256",
                    "name": "",
                    "type": "uint256"
                }
            ],
            "stateMutability": "view",
            "type": "function"
        },
        {
            "inputs": [
                {
                    "internalType": "address",
                    "name": "",
                    "type": "address"
                }
            ],
            "name": "rewards",
            "outputs": [
                {
                    "internalType": "uint256",
                    "name": "",
                    "type": "uint256"
                }
            ],
            "stateMutability": "view",
            "type": "function"
        },
        {
            "inputs": [],
            "name": "rewardsToken",
            "outputs": [
                {
                    "internalType": "contract IERC20",
                    "name": "",
                    "type": "address"
                }
            ],
            "stateMutability": "view",
            "type": "function"
        },
        {
            "inputs": [
                {
                    "internalType": "uint256",
                    "name": "_duration",
                    "type": "uint256"
                }
            ],
            "name": "setRewardsDuration",
            "outputs": [],
            "stateMutability": "nonpayable",
            "type": "function"
        },
        {
            "inputs": [
                {
                    "internalType": "uint256",
                    "name": "_amount",
                    "type": "uint256"
                }
            ],
            "name": "stake",
            "outputs": [],
            "stateMutability": "nonpayable",
            "type": "function"
        },
        {
            "inputs": [],
            "name": "stakingToken",
            "outputs": [
                {
                    "internalType": "contract IERC20",
                    "name": "",
                    "type": "address"
                }
            ],
            "stateMutability": "view",
            "type": "function"
        },
        {
            "inputs": [],
            "name": "totalSupply",
            "outputs": [
                {
                    "internalType": "uint256",
                    "name": "",
                    "type": "uint256"
                }
            ],
            "stateMutability": "view",
            "type": "function"
        },
        {
            "inputs": [],
            "name": "updatedAt",
            "outputs": [
                {
                    "internalType": "uint256",
                    "name": "",
                    "type": "uint256"
                }
            ],
            "stateMutability": "view",
            "type": "function"
        },
        {
            "inputs": [
                {
                    "internalType": "address",
                    "name": "",
                    "type": "address"
                }
            ],
            "name": "userRewardPerTokenPaid",
            "outputs": [
                {
                    "internalType": "uint256",
                    "name": "",
                    "type": "uint256"
                }
            ],
            "stateMutability": "view",
            "type": "function"
        },
        {
            "inputs": [
                {
                    "internalType": "uint256",
                    "name": "_amount",
                    "type": "uint256"
                }
            ],
            "name": "withdraw",
            "outputs": [],
            "stateMutability": "nonpayable",
            "type": "function"
        }
    ],
    "bytecode": "0x60c06040523480156200001157600080fd5b50604051620018f1380380620018f1833981810160405281019062000037919062000151565b336000806101000a81548173ffffffffffffffffffffffffffffffffffffffff021916908373ffffffffffffffffffffffffffffffffffffffff1602179055508173ffffffffffffffffffffffffffffffffffffffff1660808173ffffffffffffffffffffffffffffffffffffffff16815250508073ffffffffffffffffffffffffffffffffffffffff1660a08173ffffffffffffffffffffffffffffffffffffffff1681525050505062000198565b600080fd5b600073ffffffffffffffffffffffffffffffffffffffff82169050919050565b60006200011982620000ec565b9050919050565b6200012b816200010c565b81146200013757600080fd5b50565b6000815190506200014b8162000120565b92915050565b600080604083850312156200016b576200016a620000e7565b5b60006200017b858286016200013a565b92505060206200018e858286016200013a565b9150509250929050565b60805160a051611717620001da6000396000818161092f01528181610baf015261107101526000818161067201528181610c710152610e1701526117176000f3fe608060405234801561001057600080fd5b506004361061012b5760003560e01c80637519ab50116100ad578063a694fc3a11610071578063a694fc3a14610322578063cc1a378f1461033e578063cd3daf9d1461035a578063d1af0c7d14610378578063df136d65146103965761012b565b80637519ab501461027a5780637b0a47ee1461029857806380faa57d146102b65780638b876347146102d45780638da5cb5b146103045761012b565b80633c6b16ab116100f45780633c6b16ab146101e85780633d18b9121461020457806367d3b4881461020e57806370a082311461022c57806372f702f31461025c5761012b565b80628cc262146101305780630700037d146101605780630fb5a6b41461019057806318160ddd146101ae5780632e1a7d4d146101cc575b600080fd5b61014a60048036038101906101459190611116565b6103b4565b604051610157919061115c565b60405180910390f35b61017a60048036038101906101759190611116565b6104b6565b604051610187919061115c565b60405180910390f35b6101986104ce565b6040516101a5919061115c565b60405180910390f35b6101b66104d4565b6040516101c3919061115c565b60405180910390f35b6101e660048036038101906101e191906111a3565b6104da565b005b61020260048036038101906101fd91906111a3565b610713565b005b61020c610a37565b005b610216610c51565b604051610223919061115c565b60405180910390f35b61024660048036038101906102419190611116565b610c57565b604051610253919061115c565b60405180910390f35b610264610c6f565b604051610271919061122f565b60405180910390f35b610282610c93565b60405161028f919061115c565b60405180910390f35b6102a0610c99565b6040516102ad919061115c565b60405180910390f35b6102be610c9f565b6040516102cb919061115c565b60405180910390f35b6102ee60048036038101906102e99190611116565b610cb2565b6040516102fb919061115c565b60405180910390f35b61030c610cca565b6040516103199190611259565b60405180910390f35b61033c600480360381019061033791906111a3565b610cee565b005b610358600480360381019061035391906111a3565b610f29565b005b610362611005565b60405161036f919061115c565b60405180910390f35b61038061106f565b60405161038d919061122f565b60405180910390f35b61039e611093565b6040516103ab919061115c565b60405180910390f35b6000600760008373ffffffffffffffffffffffffffffffffffffffff1673ffffffffffffffffffffffffffffffffffffffff16815260200190815260200160002054670de0b6b3a7640000600660008573ffffffffffffffffffffffffffffffffffffffff1673ffffffffffffffffffffffffffffffffffffffff16815260200190815260200160002054610447611005565b61045191906112a3565b600960008673ffffffffffffffffffffffffffffffffffffffff1673ffffffffffffffffffffffffffffffffffffffff1681526020019081526020016000205461049b91906112d7565b6104a59190611348565b6104af9190611379565b9050919050565b60076020528060005260406000206000915090505481565b60015481565b60085481565b336104e3611005565b6005819055506104f1610c9f565b600381905550600073ffffffffffffffffffffffffffffffffffffffff168173ffffffffffffffffffffffffffffffffffffffff16146105be57610534816103b4565b600760008373ffffffffffffffffffffffffffffffffffffffff1673ffffffffffffffffffffffffffffffffffffffff16815260200190815260200160002081905550600554600660008373ffffffffffffffffffffffffffffffffffffffff1673ffffffffffffffffffffffffffffffffffffffff168152602001908152602001600020819055505b60008211610601576040517f08c379a00000000000000000000000000000000000000000000000000000000081526004016105f89061140a565b60405180910390fd5b81600960003373ffffffffffffffffffffffffffffffffffffffff1673ffffffffffffffffffffffffffffffffffffffff168152602001908152602001600020600082825461065091906112a3565b92505081905550816008600082825461066991906112a3565b925050819055507f000000000000000000000000000000000000000000000000000000000000000073ffffffffffffffffffffffffffffffffffffffff1663a9059cbb33846040518363ffffffff1660e01b81526004016106cb92919061142a565b6020604051808303816000875af11580156106ea573d6000803e3d6000fd5b505050506040513d601f19601f8201168201806040525081019061070e919061148b565b505050565b60008054906101000a900473ffffffffffffffffffffffffffffffffffffffff1673ffffffffffffffffffffffffffffffffffffffff163373ffffffffffffffffffffffffffffffffffffffff16146107a1576040517f08c379a000000000000000000000000000000000000000000000000000000000815260040161079890611504565b60405180910390fd5b60006107ab611005565b6005819055506107b9610c9f565b600381905550600073ffffffffffffffffffffffffffffffffffffffff168173ffffffffffffffffffffffffffffffffffffffff1614610886576107fc816103b4565b600760008373ffffffffffffffffffffffffffffffffffffffff1673ffffffffffffffffffffffffffffffffffffffff16815260200190815260200160002081905550600554600660008373ffffffffffffffffffffffffffffffffffffffff1673ffffffffffffffffffffffffffffffffffffffff168152602001908152602001600020819055505b60025442106108a8576001548261089d9190611348565b6004819055506108e8565b6000600454426002546108bb91906112a3565b6108c591906112d7565b905060015481846108d69190611379565b6108e09190611348565b600481905550505b60006004541161092d576040517f08c379a000000000000000000000000000000000000000000000000000000000815260040161092490611570565b60405180910390fd5b7f000000000000000000000000000000000000000000000000000000000000000073ffffffffffffffffffffffffffffffffffffffff166370a08231306040518263ffffffff1660e01b81526004016109869190611259565b602060405180830381865afa1580156109a3573d6000803e3d6000fd5b505050506040513d601f19601f820116820180604052508101906109c791906115a5565b6001546004546109d791906112d7565b1115610a18576040517f08c379a0000000000000000000000000000000000000000000000000000000008152600401610a0f9061161e565b60405180910390fd5b60015442610a269190611379565b600281905550426003819055505050565b33610a40611005565b600581905550610a4e610c9f565b600381905550600073ffffffffffffffffffffffffffffffffffffffff168173ffffffffffffffffffffffffffffffffffffffff1614610b1b57610a91816103b4565b600760008373ffffffffffffffffffffffffffffffffffffffff1673ffffffffffffffffffffffffffffffffffffffff16815260200190815260200160002081905550600554600660008373ffffffffffffffffffffffffffffffffffffffff1673ffffffffffffffffffffffffffffffffffffffff168152602001908152602001600020819055505b6000600760003373ffffffffffffffffffffffffffffffffffffffff1673ffffffffffffffffffffffffffffffffffffffff1681526020019081526020016000205490506000811115610c4d576000600760003373ffffffffffffffffffffffffffffffffffffffff1673ffffffffffffffffffffffffffffffffffffffff168152602001908152602001600020819055507f000000000000000000000000000000000000000000000000000000000000000073ffffffffffffffffffffffffffffffffffffffff1663a9059cbb33836040518363ffffffff1660e01b8152600401610c0892919061142a565b6020604051808303816000875af1158015610c27573d6000803e3d6000fd5b505050506040513d601f19601f82011682018060405250810190610c4b919061148b565b505b5050565b60025481565b60096020528060005260406000206000915090505481565b7f000000000000000000000000000000000000000000000000000000000000000081565b60035481565b60045481565b6000610cad60025442611099565b905090565b60066020528060005260406000206000915090505481565b60008054906101000a900473ffffffffffffffffffffffffffffffffffffffff1681565b33610cf7611005565b600581905550610d05610c9f565b600381905550600073ffffffffffffffffffffffffffffffffffffffff168173ffffffffffffffffffffffffffffffffffffffff1614610dd257610d48816103b4565b600760008373ffffffffffffffffffffffffffffffffffffffff1673ffffffffffffffffffffffffffffffffffffffff16815260200190815260200160002081905550600554600660008373ffffffffffffffffffffffffffffffffffffffff1673ffffffffffffffffffffffffffffffffffffffff168152602001908152602001600020819055505b60008211610e15576040517f08c379a0000000000000000000000000000000000000000000000000000000008152600401610e0c9061140a565b60405180910390fd5b7f000000000000000000000000000000000000000000000000000000000000000073ffffffffffffffffffffffffffffffffffffffff166323b872dd3330856040518463ffffffff1660e01b8152600401610e729392919061163e565b6020604051808303816000875af1158015610e91573d6000803e3d6000fd5b505050506040513d601f19601f82011682018060405250810190610eb5919061148b565b5081600960003373ffffffffffffffffffffffffffffffffffffffff1673ffffffffffffffffffffffffffffffffffffffff1681526020019081526020016000206000828254610f059190611379565b925050819055508160086000828254610f1e9190611379565b925050819055505050565b60008054906101000a900473ffffffffffffffffffffffffffffffffffffffff1673ffffffffffffffffffffffffffffffffffffffff163373ffffffffffffffffffffffffffffffffffffffff1614610fb7576040517f08c379a0000000000000000000000000000000000000000000000000000000008152600401610fae90611504565b60405180910390fd5b4260025410610ffb576040517f08c379a0000000000000000000000000000000000000000000000000000000008152600401610ff2906116c1565b60405180910390fd5b8060018190555050565b6000806008540361101a57600554905061106c565b600854670de0b6b3a7640000600354611031610c9f565b61103b91906112a3565b60045461104891906112d7565b61105291906112d7565b61105c9190611348565b6005546110699190611379565b90505b90565b7f000000000000000000000000000000000000000000000000000000000000000081565b60055481565b6000818311156110a957816110ab565b825b905092915050565b600080fd5b600073ffffffffffffffffffffffffffffffffffffffff82169050919050565b60006110e3826110b8565b9050919050565b6110f3816110d8565b81146110fe57600080fd5b50565b600081359050611110816110ea565b92915050565b60006020828403121561112c5761112b6110b3565b5b600061113a84828501611101565b91505092915050565b6000819050919050565b61115681611143565b82525050565b6000602082019050611171600083018461114d565b92915050565b61118081611143565b811461118b57600080fd5b50565b60008135905061119d81611177565b92915050565b6000602082840312156111b9576111b86110b3565b5b60006111c78482850161118e565b91505092915050565b6000819050919050565b60006111f56111f06111eb846110b8565b6111d0565b6110b8565b9050919050565b6000611207826111da565b9050919050565b6000611219826111fc565b9050919050565b6112298161120e565b82525050565b60006020820190506112446000830184611220565b92915050565b611253816110d8565b82525050565b600060208201905061126e600083018461124a565b92915050565b7f4e487b7100000000000000000000000000000000000000000000000000000000600052601160045260246000fd5b60006112ae82611143565b91506112b983611143565b92508282039050818111156112d1576112d0611274565b5b92915050565b60006112e282611143565b91506112ed83611143565b92508282026112fb81611143565b9150828204841483151761131257611311611274565b5b5092915050565b7f4e487b7100000000000000000000000000000000000000000000000000000000600052601260045260246000fd5b600061135382611143565b915061135e83611143565b92508261136e5761136d611319565b5b828204905092915050565b600061138482611143565b915061138f83611143565b92508282019050808211156113a7576113a6611274565b5b92915050565b600082825260208201905092915050565b7f616d6f756e74203d203000000000000000000000000000000000000000000000600082015250565b60006113f4600a836113ad565b91506113ff826113be565b602082019050919050565b60006020820190508181036000830152611423816113e7565b9050919050565b600060408201905061143f600083018561124a565b61144c602083018461114d565b9392505050565b60008115159050919050565b61146881611453565b811461147357600080fd5b50565b6000815190506114858161145f565b92915050565b6000602082840312156114a1576114a06110b3565b5b60006114af84828501611476565b91505092915050565b7f6e6f7420617574686f72697a6564000000000000000000000000000000000000600082015250565b60006114ee600e836113ad565b91506114f9826114b8565b602082019050919050565b6000602082019050818103600083015261151d816114e1565b9050919050565b7f7265776172642072617465203d20300000000000000000000000000000000000600082015250565b600061155a600f836113ad565b915061156582611524565b602082019050919050565b600060208201905081810360008301526115898161154d565b9050919050565b60008151905061159f81611177565b92915050565b6000602082840312156115bb576115ba6110b3565b5b60006115c984828501611590565b91505092915050565b7f72657761726420616d6f756e74203e2062616c616e6365000000000000000000600082015250565b60006116086017836113ad565b9150611613826115d2565b602082019050919050565b60006020820190508181036000830152611637816115fb565b9050919050565b6000606082019050611653600083018661124a565b611660602083018561124a565b61166d604083018461114d565b949350505050565b7f726577617264206475726174696f6e206e6f742066696e697368656400000000600082015250565b60006116ab601c836113ad565b91506116b682611675565b602082019050919050565b600060208201905081810360008301526116da8161169e565b905091905056fea2646970667358221220e92e934208c56954221706cc326f3cefc63e1ba4686088e68c251f58e14b361564736f6c63430008110033",
    "linkReferences": {},
    "deployedLinkReferences": {}
}